{
  "contractName": "Election",
  "abi": [
    {
      "inputs": [],
      "stateMutability": "nonpayable",
      "type": "constructor"
    },
    {
      "inputs": [],
      "name": "admin",
      "outputs": [
        {
          "internalType": "address",
          "name": "",
          "type": "address"
        }
      ],
      "stateMutability": "view",
      "type": "function",
      "constant": true
    },
    {
      "inputs": [
        {
          "internalType": "uint256",
          "name": "",
          "type": "uint256"
        }
      ],
      "name": "candidateDetails",
      "outputs": [
        {
          "internalType": "uint256",
          "name": "candidateId",
          "type": "uint256"
        },
        {
          "internalType": "string",
          "name": "header",
          "type": "string"
        },
        {
          "internalType": "string",
          "name": "slogan",
          "type": "string"
        },
        {
          "internalType": "uint256",
          "name": "voteCount",
          "type": "uint256"
        }
      ],
      "stateMutability": "view",
      "type": "function",
      "constant": true
    },
    {
      "inputs": [
        {
          "internalType": "address",
          "name": "",
          "type": "address"
        }
      ],
      "name": "voterDetails",
      "outputs": [
        {
          "internalType": "address",
          "name": "voterAddress",
          "type": "address"
        },
        {
          "internalType": "string",
          "name": "name",
          "type": "string"
        },
        {
          "internalType": "string",
          "name": "phone",
          "type": "string"
        },
        {
          "internalType": "bool",
          "name": "isVerified",
          "type": "bool"
        },
        {
          "internalType": "bool",
          "name": "hasVoted",
          "type": "bool"
        },
        {
          "internalType": "bool",
          "name": "isRegistered",
          "type": "bool"
        }
      ],
      "stateMutability": "view",
      "type": "function",
      "constant": true
    },
    {
      "inputs": [
        {
          "internalType": "uint256",
          "name": "",
          "type": "uint256"
        }
      ],
      "name": "voters",
      "outputs": [
        {
          "internalType": "address",
          "name": "",
          "type": "address"
        }
      ],
      "stateMutability": "view",
      "type": "function",
      "constant": true
    },
    {
      "inputs": [],
      "name": "getAdmin",
      "outputs": [
        {
          "internalType": "address",
          "name": "",
          "type": "address"
        }
      ],
      "stateMutability": "view",
      "type": "function",
      "constant": true
    },
    {
      "inputs": [
        {
          "internalType": "string",
          "name": "_header",
          "type": "string"
        },
        {
          "internalType": "string",
          "name": "_slogan",
          "type": "string"
        }
      ],
      "name": "addCandidate",
      "outputs": [],
      "stateMutability": "nonpayable",
      "type": "function"
    },
    {
      "inputs": [
        {
          "internalType": "string",
          "name": "_adminName",
          "type": "string"
        },
        {
          "internalType": "string",
          "name": "_adminEmail",
          "type": "string"
        },
        {
          "internalType": "string",
          "name": "_adminTitle",
          "type": "string"
        },
        {
          "internalType": "string",
          "name": "_electionTitle",
          "type": "string"
        },
        {
          "internalType": "string",
          "name": "_organizationTitle",
          "type": "string"
        }
      ],
      "name": "setElectionDetails",
      "outputs": [],
      "stateMutability": "nonpayable",
      "type": "function"
    },
    {
      "inputs": [],
      "name": "getElectionDetails",
      "outputs": [
        {
          "internalType": "string",
          "name": "adminName",
          "type": "string"
        },
        {
          "internalType": "string",
          "name": "adminEmail",
          "type": "string"
        },
        {
          "internalType": "string",
          "name": "adminTitle",
          "type": "string"
        },
        {
          "internalType": "string",
          "name": "electionTitle",
          "type": "string"
        },
        {
          "internalType": "string",
          "name": "organizationTitle",
          "type": "string"
        }
      ],
      "stateMutability": "view",
      "type": "function",
      "constant": true
    },
    {
      "inputs": [],
      "name": "getTotalCandidate",
      "outputs": [
        {
          "internalType": "uint256",
          "name": "",
          "type": "uint256"
        }
      ],
      "stateMutability": "view",
      "type": "function",
      "constant": true
    },
    {
      "inputs": [],
      "name": "getTotalVoter",
      "outputs": [
        {
          "internalType": "uint256",
          "name": "",
          "type": "uint256"
        }
      ],
      "stateMutability": "view",
      "type": "function",
      "constant": true
    },
    {
      "inputs": [
        {
          "internalType": "string",
          "name": "_name",
          "type": "string"
        },
        {
          "internalType": "string",
          "name": "_phone",
          "type": "string"
        }
      ],
      "name": "registerAsVoter",
      "outputs": [],
      "stateMutability": "nonpayable",
      "type": "function"
    },
    {
      "inputs": [
        {
          "internalType": "bool",
          "name": "_verifedStatus",
          "type": "bool"
        },
        {
          "internalType": "address",
          "name": "voterAddress",
          "type": "address"
        }
      ],
      "name": "verifyVoter",
      "outputs": [],
      "stateMutability": "nonpayable",
      "type": "function"
    },
    {
      "inputs": [
        {
          "internalType": "uint256",
          "name": "candidateId",
          "type": "uint256"
        }
      ],
      "name": "vote",
      "outputs": [],
      "stateMutability": "nonpayable",
      "type": "function"
    },
    {
      "inputs": [],
      "name": "endElection",
      "outputs": [],
      "stateMutability": "nonpayable",
      "type": "function"
    },
    {
      "inputs": [],
      "name": "getStart",
      "outputs": [
        {
          "internalType": "bool",
          "name": "",
          "type": "bool"
        }
      ],
      "stateMutability": "view",
      "type": "function",
      "constant": true
    },
    {
      "inputs": [],
      "name": "getEnd",
      "outputs": [
        {
          "internalType": "bool",
          "name": "",
          "type": "bool"
        }
      ],
      "stateMutability": "view",
      "type": "function",
      "constant": true
    }
  ],
  "bytecode": "0x608060405234801561000f575f80fd5b50335f806101000a81548173ffffffffffffffffffffffffffffffffffffffff021916908373ffffffffffffffffffffffffffffffffffffffff1602179055505f6001819055505f6002819055505f60035f6101000a81548160ff0219169083151502179055505f600360016101000a81548160ff0219169083151502179055506119b58061009d5f395ff3fe608060405234801561000f575f80fd5b50600436106100fe575f3560e01c806364d198a111610095578063da58c7d911610064578063da58c7d91461027a578063ed836bc3146102aa578063f851a440146102cc578063fee0d19a146102ea576100fe565b806364d198a1146102025780636e9960c3146102205780639f05a36d1461023e578063c5292c671461025c576100fe565b8063506b8e0a116100d1578063506b8e0a146101745780635938750d1461019057806359f78468146101c55780636247e532146101cf576100fe565b80630121b93f146101025780630b93400e1461011e578063253e74e21461013c57806326541b5614610158575b5f80fd5b61011c6004803603810190610117919061105a565b610306565b005b610126610481565b6040516101339190611094565b60405180910390f35b610156600480360381019061015191906111e9565b61048a565b005b610172600480360381019061016d91906112ec565b6105b3565b005b61018e600480360381019061018991906113f1565b6106a1565b005b6101aa60048036038101906101a5919061142f565b610752565b6040516101bc969594939291906114f2565b60405180910390f35b6101cd6108db565b005b6101e960048036038101906101e4919061105a565b610967565b6040516101f9949392919061155f565b60405180910390f35b61020a610a9f565b6040516102179190611094565b60405180910390f35b610228610aa8565b60405161023591906115b0565b60405180910390f35b610246610acf565b60405161025391906115c9565b60405180910390f35b610264610ae5565b60405161027191906115c9565b60405180910390f35b610294600480360381019061028f919061105a565b610afa565b6040516102a191906115b0565b60405180910390f35b6102b2610b35565b6040516102c39594939291906115e2565b60405180910390f35b6102d4610e18565b6040516102e191906115b0565b60405180910390f35b61030460048036038101906102ff91906112ec565b610e3b565b005b5f1515600b5f3373ffffffffffffffffffffffffffffffffffffffff1673ffffffffffffffffffffffffffffffffffffffff1681526020019081526020015f2060030160019054906101000a900460ff16151514610362575f80fd5b60011515600b5f3373ffffffffffffffffffffffffffffffffffffffff1673ffffffffffffffffffffffffffffffffffffffff1681526020019081526020015f206003015f9054906101000a900460ff161515146103be575f80fd5b6001151560035f9054906101000a900460ff161515146103dc575f80fd5b5f1515600360019054906101000a900460ff161515146103fa575f80fd5b600160045f8381526020019081526020015f206003015f82825461041e9190611683565b925050819055506001600b5f3373ffffffffffffffffffffffffffffffffffffffff1673ffffffffffffffffffffffffffffffffffffffff1681526020019081526020015f2060030160016101000a81548160ff02191690831515021790555050565b5f600254905090565b5f8054906101000a900473ffffffffffffffffffffffffffffffffffffffff1673ffffffffffffffffffffffffffffffffffffffff163373ffffffffffffffffffffffffffffffffffffffff16146104e0575f80fd5b6040518060a001604052808681526020018581526020018481526020018381526020018281525060055f820151815f01908161051c91906118b0565b50602082015181600101908161053291906118b0565b50604082015181600201908161054891906118b0565b50606082015181600301908161055e91906118b0565b50608082015181600401908161057491906118b0565b50905050600160035f6101000a81548160ff0219169083151502179055505f600360016101000a81548160ff0219169083151502179055505050505050565b5f8054906101000a900473ffffffffffffffffffffffffffffffffffffffff1673ffffffffffffffffffffffffffffffffffffffff163373ffffffffffffffffffffffffffffffffffffffff1614610609575f80fd5b5f604051806080016040528060015481526020018481526020018381526020015f81525090508060045f60015481526020019081526020015f205f820151815f0155602082015181600101908161066091906118b0565b50604082015181600201908161067691906118b0565b50606082015181600301559050506001805f8282546106959190611683565b92505081905550505050565b5f8054906101000a900473ffffffffffffffffffffffffffffffffffffffff1673ffffffffffffffffffffffffffffffffffffffff163373ffffffffffffffffffffffffffffffffffffffff16146106f7575f80fd5b81600b5f8373ffffffffffffffffffffffffffffffffffffffff1673ffffffffffffffffffffffffffffffffffffffff1681526020019081526020015f206003015f6101000a81548160ff0219169083151502179055505050565b600b602052805f5260405f205f91509050805f015f9054906101000a900473ffffffffffffffffffffffffffffffffffffffff1690806001018054610796906116e3565b80601f01602080910402602001604051908101604052809291908181526020018280546107c2906116e3565b801561080d5780601f106107e45761010080835404028352916020019161080d565b820191905f5260205f20905b8154815290600101906020018083116107f057829003601f168201915b505050505090806002018054610822906116e3565b80601f016020809104026020016040519081016040528092919081815260200182805461084e906116e3565b80156108995780601f1061087057610100808354040283529160200191610899565b820191905f5260205f20905b81548152906001019060200180831161087c57829003601f168201915b505050505090806003015f9054906101000a900460ff16908060030160019054906101000a900460ff16908060030160029054906101000a900460ff16905086565b5f8054906101000a900473ffffffffffffffffffffffffffffffffffffffff1673ffffffffffffffffffffffffffffffffffffffff163373ffffffffffffffffffffffffffffffffffffffff1614610931575f80fd5b6001600360016101000a81548160ff0219169083151502179055505f60035f6101000a81548160ff021916908315150217905550565b6004602052805f5260405f205f91509050805f01549080600101805461098c906116e3565b80601f01602080910402602001604051908101604052809291908181526020018280546109b8906116e3565b8015610a035780601f106109da57610100808354040283529160200191610a03565b820191905f5260205f20905b8154815290600101906020018083116109e657829003601f168201915b505050505090806002018054610a18906116e3565b80601f0160208091040260200160405190810160405280929190818152602001828054610a44906116e3565b8015610a8f5780601f10610a6657610100808354040283529160200191610a8f565b820191905f5260205f20905b815481529060010190602001808311610a7257829003601f168201915b5050505050908060030154905084565b5f600154905090565b5f805f9054906101000a900473ffffffffffffffffffffffffffffffffffffffff16905090565b5f600360019054906101000a900460ff16905090565b5f60035f9054906101000a900460ff16905090565b600a8181548110610b09575f80fd5b905f5260205f20015f915054906101000a900473ffffffffffffffffffffffffffffffffffffffff1681565b606080606080606060055f016005600101600560020160056003016005600401848054610b61906116e3565b80601f0160208091040260200160405190810160405280929190818152602001828054610b8d906116e3565b8015610bd85780601f10610baf57610100808354040283529160200191610bd8565b820191905f5260205f20905b815481529060010190602001808311610bbb57829003601f168201915b50505050509450838054610beb906116e3565b80601f0160208091040260200160405190810160405280929190818152602001828054610c17906116e3565b8015610c625780601f10610c3957610100808354040283529160200191610c62565b820191905f5260205f20905b815481529060010190602001808311610c4557829003601f168201915b50505050509350828054610c75906116e3565b80601f0160208091040260200160405190810160405280929190818152602001828054610ca1906116e3565b8015610cec5780601f10610cc357610100808354040283529160200191610cec565b820191905f5260205f20905b815481529060010190602001808311610ccf57829003601f168201915b50505050509250818054610cff906116e3565b80601f0160208091040260200160405190810160405280929190818152602001828054610d2b906116e3565b8015610d765780601f10610d4d57610100808354040283529160200191610d76565b820191905f5260205f20905b815481529060010190602001808311610d5957829003601f168201915b50505050509150808054610d89906116e3565b80601f0160208091040260200160405190810160405280929190818152602001828054610db5906116e3565b8015610e005780601f10610dd757610100808354040283529160200191610e00565b820191905f5260205f20905b815481529060010190602001808311610de357829003601f168201915b50505050509050945094509450945094509091929394565b5f8054906101000a900473ffffffffffffffffffffffffffffffffffffffff1681565b5f6040518060c001604052803373ffffffffffffffffffffffffffffffffffffffff1681526020018481526020018381526020015f151581526020015f1515815260200160011515815250905080600b5f3373ffffffffffffffffffffffffffffffffffffffff1673ffffffffffffffffffffffffffffffffffffffff1681526020019081526020015f205f820151815f015f6101000a81548173ffffffffffffffffffffffffffffffffffffffff021916908373ffffffffffffffffffffffffffffffffffffffff1602179055506020820151816001019081610f1f91906118b0565b506040820151816002019081610f3591906118b0565b506060820151816003015f6101000a81548160ff02191690831515021790555060808201518160030160016101000a81548160ff02191690831515021790555060a08201518160030160026101000a81548160ff021916908315150217905550905050600a33908060018154018082558091505060019003905f5260205f20015f9091909190916101000a81548173ffffffffffffffffffffffffffffffffffffffff021916908373ffffffffffffffffffffffffffffffffffffffff160217905550600160025f82825461100a9190611683565b92505081905550505050565b5f604051905090565b5f80fd5b5f80fd5b5f819050919050565b61103981611027565b8114611043575f80fd5b50565b5f8135905061105481611030565b92915050565b5f6020828403121561106f5761106e61101f565b5b5f61107c84828501611046565b91505092915050565b61108e81611027565b82525050565b5f6020820190506110a75f830184611085565b92915050565b5f80fd5b5f80fd5b5f601f19601f8301169050919050565b7f4e487b71000000000000000000000000000000000000000000000000000000005f52604160045260245ffd5b6110fb826110b5565b810181811067ffffffffffffffff8211171561111a576111196110c5565b5b80604052505050565b5f61112c611016565b905061113882826110f2565b919050565b5f67ffffffffffffffff821115611157576111566110c5565b5b611160826110b5565b9050602081019050919050565b828183375f83830152505050565b5f61118d6111888461113d565b611123565b9050828152602081018484840111156111a9576111a86110b1565b5b6111b484828561116d565b509392505050565b5f82601f8301126111d0576111cf6110ad565b5b81356111e084826020860161117b565b91505092915050565b5f805f805f60a086880312156112025761120161101f565b5b5f86013567ffffffffffffffff81111561121f5761121e611023565b5b61122b888289016111bc565b955050602086013567ffffffffffffffff81111561124c5761124b611023565b5b611258888289016111bc565b945050604086013567ffffffffffffffff81111561127957611278611023565b5b611285888289016111bc565b935050606086013567ffffffffffffffff8111156112a6576112a5611023565b5b6112b2888289016111bc565b925050608086013567ffffffffffffffff8111156112d3576112d2611023565b5b6112df888289016111bc565b9150509295509295909350565b5f80604083850312156113025761130161101f565b5b5f83013567ffffffffffffffff81111561131f5761131e611023565b5b61132b858286016111bc565b925050602083013567ffffffffffffffff81111561134c5761134b611023565b5b611358858286016111bc565b9150509250929050565b5f8115159050919050565b61137681611362565b8114611380575f80fd5b50565b5f813590506113918161136d565b92915050565b5f73ffffffffffffffffffffffffffffffffffffffff82169050919050565b5f6113c082611397565b9050919050565b6113d0816113b6565b81146113da575f80fd5b50565b5f813590506113eb816113c7565b92915050565b5f80604083850312156114075761140661101f565b5b5f61141485828601611383565b9250506020611425858286016113dd565b9150509250929050565b5f602082840312156114445761144361101f565b5b5f611451848285016113dd565b91505092915050565b611463816113b6565b82525050565b5f81519050919050565b5f82825260208201905092915050565b5f5b838110156114a0578082015181840152602081019050611485565b5f8484015250505050565b5f6114b582611469565b6114bf8185611473565b93506114cf818560208601611483565b6114d8816110b5565b840191505092915050565b6114ec81611362565b82525050565b5f60c0820190506115055f83018961145a565b818103602083015261151781886114ab565b9050818103604083015261152b81876114ab565b905061153a60608301866114e3565b61154760808301856114e3565b61155460a08301846114e3565b979650505050505050565b5f6080820190506115725f830187611085565b818103602083015261158481866114ab565b9050818103604083015261159881856114ab565b90506115a76060830184611085565b95945050505050565b5f6020820190506115c35f83018461145a565b92915050565b5f6020820190506115dc5f8301846114e3565b92915050565b5f60a0820190508181035f8301526115fa81886114ab565b9050818103602083015261160e81876114ab565b9050818103604083015261162281866114ab565b9050818103606083015261163681856114ab565b9050818103608083015261164a81846114ab565b90509695505050505050565b7f4e487b71000000000000000000000000000000000000000000000000000000005f52601160045260245ffd5b5f61168d82611027565b915061169883611027565b92508282019050808211156116b0576116af611656565b5b92915050565b7f4e487b71000000000000000000000000000000000000000000000000000000005f52602260045260245ffd5b5f60028204905060018216806116fa57607f821691505b60208210810361170d5761170c6116b6565b5b50919050565b5f819050815f5260205f209050919050565b5f6020601f8301049050919050565b5f82821b905092915050565b5f6008830261176f7fffffffffffffffffffffffffffffffffffffffffffffffffffffffffffffffff82611734565b6117798683611734565b95508019841693508086168417925050509392505050565b5f819050919050565b5f6117b46117af6117aa84611027565b611791565b611027565b9050919050565b5f819050919050565b6117cd8361179a565b6117e16117d9826117bb565b848454611740565b825550505050565b5f90565b6117f56117e9565b6118008184846117c4565b505050565b5b81811015611823576118185f826117ed565b600181019050611806565b5050565b601f8211156118685761183981611713565b61184284611725565b81016020851015611851578190505b61186561185d85611725565b830182611805565b50505b505050565b5f82821c905092915050565b5f6118885f198460080261186d565b1980831691505092915050565b5f6118a08383611879565b9150826002028217905092915050565b6118b982611469565b67ffffffffffffffff8111156118d2576118d16110c5565b5b6118dc82546116e3565b6118e7828285611827565b5f60209050601f831160018114611918575f8415611906578287015190505b6119108582611895565b865550611977565b601f19841661192686611713565b5f5b8281101561194d57848901518255600182019150602085019450602081019050611928565b8683101561196a5784890151611966601f891682611879565b8355505b6001600288020188555050505b50505050505056fea264697066735822122056fe875663c5cd8920d69491b0078b5deeaf09a12358cd110e0d103cb367285964736f6c63430008150033",
  "immutableReferences": {},
  "source": "// SPDX-License-Identifier: UNLICENSED\npragma solidity ^0.8.21;\n\ncontract Election {\n    address public admin;\n    uint256 candidateCount;\n    uint256 voterCount;\n    bool start;\n    bool end;\n\n    constructor() {\n        // Initilizing default values\n        admin = msg.sender;\n        candidateCount = 0;\n        voterCount = 0;\n        start = false;\n        end = false;\n    }\n\n    function getAdmin() public view returns (address) {\n        // Returns account address used to deploy contract (i.e. admin)\n        return admin;\n    }\n\n    modifier onlyAdmin() {\n        // Modifier for only admin access\n        require(msg.sender == admin);\n        _;\n    }\n    // Modeling a candidate\n    struct Candidate {\n        uint256 candidateId;\n        string header;\n        string slogan;\n        uint256 voteCount;\n    }\n    mapping(uint256 => Candidate) public candidateDetails;\n\n    // Adding new candidates\n    function addCandidate(string memory _header, string memory _slogan)\n        public\n        // Only admin can add\n        onlyAdmin\n    {\n        Candidate memory newCandidate =\n            Candidate({\n                candidateId: candidateCount,\n                header: _header,\n                slogan: _slogan,\n                voteCount: 0\n            });\n        candidateDetails[candidateCount] = newCandidate;\n        candidateCount += 1;\n    }\n\n    // Modeling a Election Details\n    struct ElectionDetails {\n        string adminName;\n        string adminEmail;\n        string adminTitle;\n        string electionTitle;\n        string organizationTitle;\n    }\n    ElectionDetails electionDetails;\n\n    function setElectionDetails(\n        string memory _adminName,\n        string memory _adminEmail,\n        string memory _adminTitle,\n        string memory _electionTitle,\n        string memory _organizationTitle\n    )\n        public\n        // Only admin can add\n        onlyAdmin\n    {\n        electionDetails = ElectionDetails(\n            _adminName,\n            _adminEmail,\n            _adminTitle,\n            _electionTitle,\n            _organizationTitle\n        );\n        start = true;\n        end = false;\n    }\n\n    // Get Elections details\n    function getElectionDetails()\n    public\n    view\n    returns(string memory adminName, \n    string memory adminEmail, \n    string memory adminTitle, \n    string memory electionTitle, \n    string memory organizationTitle){\n        return(electionDetails.adminName, \n        electionDetails.adminEmail, \n        electionDetails.adminTitle, \n        electionDetails.electionTitle, \n        electionDetails.organizationTitle);\n    }\n\n    // Get candidates count\n    function getTotalCandidate() public view returns (uint256) {\n        // Returns total number of candidates\n        return candidateCount;\n    }\n\n    // Get voters count\n    function getTotalVoter() public view returns (uint256) {\n        // Returns total number of voters\n        return voterCount;\n    }\n\n    // Modeling a voter\n    struct Voter {\n        address voterAddress;\n        string name;\n        string phone;\n        bool isVerified;\n        bool hasVoted;\n        bool isRegistered;\n    }\n    address[] public voters; // Array of address to store address of voters\n    mapping(address => Voter) public voterDetails;\n\n    // Request to be added as voter\n    function registerAsVoter(string memory _name, string memory _phone) public {\n        Voter memory newVoter =\n            Voter({\n                voterAddress: msg.sender,\n                name: _name,\n                phone: _phone,\n                hasVoted: false,\n                isVerified: false,\n                isRegistered: true\n            });\n        voterDetails[msg.sender] = newVoter;\n        voters.push(msg.sender);\n        voterCount += 1;\n    }\n\n    // Verify voter\n    function verifyVoter(bool _verifedStatus, address voterAddress)\n        public\n        // Only admin can verify\n        onlyAdmin\n    {\n        voterDetails[voterAddress].isVerified = _verifedStatus;\n    }\n\n    // Vote\n    function vote(uint256 candidateId) public {\n        require(voterDetails[msg.sender].hasVoted == false);\n        require(voterDetails[msg.sender].isVerified == true);\n        require(start == true);\n        require(end == false);\n        candidateDetails[candidateId].voteCount += 1;\n        voterDetails[msg.sender].hasVoted = true;\n    }\n\n    // End election\n    function endElection() public onlyAdmin {\n        end = true;\n        start = false;\n    }\n\n    // Get election start and end values\n    function getStart() public view returns (bool) {\n        return start;\n    }\n\n    function getEnd() public view returns (bool) {\n        return end;\n    }\n}\n",
  "sourcePath": "G:\\Mission-Capstone\\2025 Capstone Projects\\MERN_Voting_Blockchain\\contracts\\Election.sol",
  "compiler": {
    "name": "solc",
    "version": "0.8.21+commit.d9974bed.Emscripten.clang"
  },
  "schemaVersion": "3.4.16",
  "updatedAt": "2025-03-21T15:18:07.846Z",
  "networkType": "ethereum",
  "devdoc": {
    "kind": "dev",
    "methods": {},
    "version": 1
  },
  "userdoc": {
    "kind": "user",
    "methods": {},
    "version": 1
  }
}